{
  "_format": "hh-sol-artifact-1",
  "contractName": "PredictionLogger",
  "sourceName": "contracts/PredictionLogger.sol",
  "abi": [
    {
      "anonymous": false,
      "inputs": [
        {
          "indexed": true,
          "internalType": "string",
          "name": "ticker",
          "type": "string"
        },
        {
          "indexed": false,
          "internalType": "string",
          "name": "predictionHash",
          "type": "string"
        },
        {
          "indexed": false,
          "internalType": "uint256",
          "name": "timestamp",
          "type": "uint256"
        },
        {
          "indexed": false,
          "internalType": "address",
          "name": "author",
          "type": "address"
        }
      ],
      "name": "NewPrediction",
      "type": "event"
    },
    {
      "inputs": [
        {
          "internalType": "uint256",
          "name": "",
          "type": "uint256"
        }
      ],
      "name": "allHashes",
      "outputs": [
        {
          "internalType": "string",
          "name": "",
          "type": "string"
        }
      ],
      "stateMutability": "view",
      "type": "function"
    },
    {
      "inputs": [],
      "name": "getTotalPredictions",
      "outputs": [
        {
          "internalType": "uint256",
          "name": "",
          "type": "uint256"
        }
      ],
      "stateMutability": "view",
      "type": "function"
    },
    {
      "inputs": [
        {
          "internalType": "string",
          "name": "_ticker",
          "type": "string"
        },
        {
          "internalType": "string",
          "name": "_predictionHash",
          "type": "string"
        }
      ],
      "name": "logPrediction",
      "outputs": [],
      "stateMutability": "nonpayable",
      "type": "function"
    },
    {
      "inputs": [
        {
          "internalType": "string",
          "name": "",
          "type": "string"
        }
      ],
      "name": "predictions",
      "outputs": [
        {
          "internalType": "string",
          "name": "ticker",
          "type": "string"
        },
        {
          "internalType": "string",
          "name": "predictionHash",
          "type": "string"
        },
        {
          "internalType": "uint256",
          "name": "timestamp",
          "type": "uint256"
        },
        {
          "internalType": "address",
          "name": "author",
          "type": "address"
        }
      ],
      "stateMutability": "view",
      "type": "function"
    },
    {
      "inputs": [
        {
          "internalType": "string",
          "name": "_predictionHash",
          "type": "string"
        }
      ],
      "name": "verifyPrediction",
      "outputs": [
        {
          "internalType": "bool",
          "name": "",
          "type": "bool"
        },
        {
          "internalType": "uint256",
          "name": "",
          "type": "uint256"
        },
        {
          "internalType": "address",
          "name": "",
          "type": "address"
        }
      ],
      "stateMutability": "view",
      "type": "function"
    }
  ],
  "bytecode": "0x608060405234801561001057600080fd5b50610f4e806100206000396000f3fe608060405234801561001057600080fd5b50600436106100565760003560e01c8062ba39841461005b578063313ef096146100775780635c580061146100a75780637b4fd3e3146100c5578063fdce3db7146100f8575b600080fd5b61007560048036038101906100709190610868565b61012a565b005b610091600480360381019061008c9190610916565b6102f2565b60405161009e91906109c2565b60405180910390f35b6100af61039e565b6040516100bc91906109f3565b60405180910390f35b6100df60048036038101906100da9190610a0e565b6103ab565b6040516100ef9493929190610a98565b60405180910390f35b610112600480360381019061010d9190610a0e565b610521565b60405161012193929190610b06565b60405180910390f35b6000808260405161013b9190610b79565b9081526020016040518091039020600201541461018d576040517f08c379a000000000000000000000000000000000000000000000000000000000815260040161018490610bdc565b60405180910390fd5b600060405180608001604052808481526020018381526020014281526020013373ffffffffffffffffffffffffffffffffffffffff168152509050806000836040516101d99190610b79565b908152602001604051809103902060008201518160000190816101fc9190610e08565b5060208201518160010190816102129190610e08565b506040820151816002015560608201518160030160006101000a81548173ffffffffffffffffffffffffffffffffffffffff021916908373ffffffffffffffffffffffffffffffffffffffff16021790555090505060018290806001815401808255809150506001900390600052602060002001600090919091909150908161029b9190610e08565b50826040516102aa9190610b79565b60405180910390207f78a3e2154a0a84763faa76cfc3c0e3acb622419389053deac59ff84b80af4a628342336040516102e593929190610eda565b60405180910390a2505050565b6001818154811061030257600080fd5b90600052602060002001600091509050805461031d90610c2b565b80601f016020809104026020016040519081016040528092919081815260200182805461034990610c2b565b80156103965780601f1061036b57610100808354040283529160200191610396565b820191906000526020600020905b81548152906001019060200180831161037957829003601f168201915b505050505081565b6000600180549050905090565b6000818051602081018201805184825260208301602085012081835280955050505050506000915090508060000180546103e490610c2b565b80601f016020809104026020016040519081016040528092919081815260200182805461041090610c2b565b801561045d5780601f106104325761010080835404028352916020019161045d565b820191906000526020600020905b81548152906001019060200180831161044057829003601f168201915b50505050509080600101805461047290610c2b565b80601f016020809104026020016040519081016040528092919081815260200182805461049e90610c2b565b80156104eb5780601f106104c0576101008083540402835291602001916104eb565b820191906000526020600020905b8154815290600101906020018083116104ce57829003601f168201915b5050505050908060020154908060030160009054906101000a900473ffffffffffffffffffffffffffffffffffffffff16905084565b6000806000806000856040516105379190610b79565b908152602001604051809103902060405180608001604052908160008201805461056090610c2b565b80601f016020809104026020016040519081016040528092919081815260200182805461058c90610c2b565b80156105d95780601f106105ae576101008083540402835291602001916105d9565b820191906000526020600020905b8154815290600101906020018083116105bc57829003601f168201915b505050505081526020016001820180546105f290610c2b565b80601f016020809104026020016040519081016040528092919081815260200182805461061e90610c2b565b801561066b5780601f106106405761010080835404028352916020019161066b565b820191906000526020600020905b81548152906001019060200180831161064e57829003601f168201915b50505050508152602001600282015481526020016003820160009054906101000a900473ffffffffffffffffffffffffffffffffffffffff1673ffffffffffffffffffffffffffffffffffffffff1673ffffffffffffffffffffffffffffffffffffffff1681525050905060008160400151036106f357600080600093509350935050610707565b600181604001518260600151935093509350505b9193909250565b6000604051905090565b600080fd5b600080fd5b600080fd5b600080fd5b6000601f19601f8301169050919050565b7f4e487b7100000000000000000000000000000000000000000000000000000000600052604160045260246000fd5b6107758261072c565b810181811067ffffffffffffffff821117156107945761079361073d565b5b80604052505050565b60006107a761070e565b90506107b3828261076c565b919050565b600067ffffffffffffffff8211156107d3576107d261073d565b5b6107dc8261072c565b9050602081019050919050565b82818337600083830152505050565b600061080b610806846107b8565b61079d565b90508281526020810184848401111561082757610826610727565b5b6108328482856107e9565b509392505050565b600082601f83011261084f5761084e610722565b5b813561085f8482602086016107f8565b91505092915050565b6000806040838503121561087f5761087e610718565b5b600083013567ffffffffffffffff81111561089d5761089c61071d565b5b6108a98582860161083a565b925050602083013567ffffffffffffffff8111156108ca576108c961071d565b5b6108d68582860161083a565b9150509250929050565b6000819050919050565b6108f3816108e0565b81146108fe57600080fd5b50565b600081359050610910816108ea565b92915050565b60006020828403121561092c5761092b610718565b5b600061093a84828501610901565b91505092915050565b600081519050919050565b600082825260208201905092915050565b60005b8381101561097d578082015181840152602081019050610962565b60008484015250505050565b600061099482610943565b61099e818561094e565b93506109ae81856020860161095f565b6109b78161072c565b840191505092915050565b600060208201905081810360008301526109dc8184610989565b905092915050565b6109ed816108e0565b82525050565b6000602082019050610a0860008301846109e4565b92915050565b600060208284031215610a2457610a23610718565b5b600082013567ffffffffffffffff811115610a4257610a4161071d565b5b610a4e8482850161083a565b91505092915050565b600073ffffffffffffffffffffffffffffffffffffffff82169050919050565b6000610a8282610a57565b9050919050565b610a9281610a77565b82525050565b60006080820190508181036000830152610ab28187610989565b90508181036020830152610ac68186610989565b9050610ad560408301856109e4565b610ae26060830184610a89565b95945050505050565b60008115159050919050565b610b0081610aeb565b82525050565b6000606082019050610b1b6000830186610af7565b610b2860208301856109e4565b610b356040830184610a89565b949350505050565b600081905092915050565b6000610b5382610943565b610b5d8185610b3d565b9350610b6d81856020860161095f565b80840191505092915050565b6000610b858284610b48565b915081905092915050565b7f50726564696374696f6e20616c72656164792065786973747300000000000000600082015250565b6000610bc660198361094e565b9150610bd182610b90565b602082019050919050565b60006020820190508181036000830152610bf581610bb9565b9050919050565b7f4e487b7100000000000000000000000000000000000000000000000000000000600052602260045260246000fd5b60006002820490506001821680610c4357607f821691505b602082108103610c5657610c55610bfc565b5b50919050565b60008190508160005260206000209050919050565b60006020601f8301049050919050565b600082821b905092915050565b600060088302610cbe7fffffffffffffffffffffffffffffffffffffffffffffffffffffffffffffffff82610c81565b610cc88683610c81565b95508019841693508086168417925050509392505050565b6000819050919050565b6000610d05610d00610cfb846108e0565b610ce0565b6108e0565b9050919050565b6000819050919050565b610d1f83610cea565b610d33610d2b82610d0c565b848454610c8e565b825550505050565b600090565b610d48610d3b565b610d53818484610d16565b505050565b5b81811015610d7757610d6c600082610d40565b600181019050610d59565b5050565b601f821115610dbc57610d8d81610c5c565b610d9684610c71565b81016020851015610da5578190505b610db9610db185610c71565b830182610d58565b50505b505050565b600082821c905092915050565b6000610ddf60001984600802610dc1565b1980831691505092915050565b6000610df88383610dce565b9150826002028217905092915050565b610e1182610943565b67ffffffffffffffff811115610e2a57610e2961073d565b5b610e348254610c2b565b610e3f828285610d7b565b600060209050601f831160018114610e725760008415610e60578287015190505b610e6a8582610dec565b865550610ed2565b601f198416610e8086610c5c565b60005b82811015610ea857848901518255600182019150602085019450602081019050610e83565b86831015610ec55784890151610ec1601f891682610dce565b8355505b6001600288020188555050505b505050505050565b60006060820190508181036000830152610ef48186610989565b9050610f0360208301856109e4565b610f106040830184610a89565b94935050505056fea26469706673582212200d5c1239948e545bece7295c9bf7913a212c33a92d60bfbcec9d83a3adb871d064736f6c63430008140033",
  "linkReferences": {},
  "deployedLinkReferences": {}
}