{
  "_format": "hh-sol-artifact-1",
  "contractName": "PremiumSubscription",
  "sourceName": "contracts/PremiumSubscription.sol",
  "abi": [
    {
      "inputs": [],
      "stateMutability": "nonpayable",
      "type": "constructor"
    },
    {
      "anonymous": false,
      "inputs": [
        {
          "indexed": true,
          "internalType": "address",
          "name": "user",
          "type": "address"
        },
        {
          "indexed": false,
          "internalType": "string",
          "name": "paymentId",
          "type": "string"
        }
      ],
      "name": "PaymentVerified",
      "type": "event"
    },
    {
      "anonymous": false,
      "inputs": [
        {
          "indexed": true,
          "internalType": "address",
          "name": "user",
          "type": "address"
        },
        {
          "indexed": false,
          "internalType": "uint256",
          "name": "expiryTimestamp",
          "type": "uint256"
        }
      ],
      "name": "SubscriptionActivated",
      "type": "event"
    },
    {
      "inputs": [
        {
          "internalType": "address",
          "name": "_user",
          "type": "address"
        }
      ],
      "name": "getExpiry",
      "outputs": [
        {
          "internalType": "uint256",
          "name": "",
          "type": "uint256"
        }
      ],
      "stateMutability": "view",
      "type": "function"
    },
    {
      "inputs": [
        {
          "internalType": "address",
          "name": "_user",
          "type": "address"
        },
        {
          "internalType": "uint256",
          "name": "_durationInDays",
          "type": "uint256"
        },
        {
          "internalType": "string",
          "name": "_paymentId",
          "type": "string"
        }
      ],
      "name": "grantSubscription",
      "outputs": [],
      "stateMutability": "nonpayable",
      "type": "function"
    },
    {
      "inputs": [
        {
          "internalType": "address",
          "name": "_user",
          "type": "address"
        }
      ],
      "name": "isPremium",
      "outputs": [
        {
          "internalType": "bool",
          "name": "",
          "type": "bool"
        }
      ],
      "stateMutability": "view",
      "type": "function"
    },
    {
      "inputs": [],
      "name": "owner",
      "outputs": [
        {
          "internalType": "address",
          "name": "",
          "type": "address"
        }
      ],
      "stateMutability": "view",
      "type": "function"
    },
    {
      "inputs": [
        {
          "internalType": "address",
          "name": "",
          "type": "address"
        }
      ],
      "name": "subscriptions",
      "outputs": [
        {
          "internalType": "bool",
          "name": "isActive",
          "type": "bool"
        },
        {
          "internalType": "uint256",
          "name": "expiryTimestamp",
          "type": "uint256"
        }
      ],
      "stateMutability": "view",
      "type": "function"
    }
  ],
  "bytecode": "0x608060405234801561001057600080fd5b50336000806101000a81548173ffffffffffffffffffffffffffffffffffffffff021916908373ffffffffffffffffffffffffffffffffffffffff1602179055506108bf806100606000396000f3fe608060405234801561001057600080fd5b50600436106100575760003560e01c8063726fb2a51461005c578063742fe0d41461008c5780638da5cb5b146100bc578063d5779a60146100da578063f046395a146100f6575b600080fd5b61007660048036038101906100719190610507565b610127565b604051610083919061054d565b60405180910390f35b6100a660048036038101906100a19190610507565b610173565b6040516100b39190610583565b60405180910390f35b6100c4610219565b6040516100d191906105ad565b60405180910390f35b6100f460048036038101906100ef9190610659565b61023d565b005b610110600480360381019061010b9190610507565b61046e565b60405161011e9291906106cd565b60405180910390f35b6000600160008373ffffffffffffffffffffffffffffffffffffffff1673ffffffffffffffffffffffffffffffffffffffff168152602001908152602001600020600101549050919050565b6000600160008373ffffffffffffffffffffffffffffffffffffffff1673ffffffffffffffffffffffffffffffffffffffff16815260200190815260200160002060000160009054906101000a900460ff168015610212575042600160008473ffffffffffffffffffffffffffffffffffffffff1673ffffffffffffffffffffffffffffffffffffffff16815260200190815260200160002060010154115b9050919050565b60008054906101000a900473ffffffffffffffffffffffffffffffffffffffff1681565b60008054906101000a900473ffffffffffffffffffffffffffffffffffffffff1673ffffffffffffffffffffffffffffffffffffffff163373ffffffffffffffffffffffffffffffffffffffff16146102cb576040517f08c379a00000000000000000000000000000000000000000000000000000000081526004016102c290610753565b60405180910390fd5b6000600160008673ffffffffffffffffffffffffffffffffffffffff1673ffffffffffffffffffffffffffffffffffffffff16815260200190815260200160002060010154905060004282116103215742610323565b815b90506000620151808661033691906107a2565b8261034191906107e4565b9050604051806040016040528060011515815260200182815250600160008973ffffffffffffffffffffffffffffffffffffffff1673ffffffffffffffffffffffffffffffffffffffff16815260200190815260200160002060008201518160000160006101000a81548160ff021916908315150217905550602082015181600101559050508673ffffffffffffffffffffffffffffffffffffffff167f3e605b94a6b933d304c3e353f076a6d8a6c9757ebde95cb63bb52c692856ccd8868660405161040f929190610865565b60405180910390a28673ffffffffffffffffffffffffffffffffffffffff167fea0cbd7c39a8a3c9a996c6ff5ee1f9ebbff1e0cfc5b78bdcef88806d888728e18260405161045d919061054d565b60405180910390a250505050505050565b60016020528060005260406000206000915090508060000160009054906101000a900460ff16908060010154905082565b600080fd5b600080fd5b600073ffffffffffffffffffffffffffffffffffffffff82169050919050565b60006104d4826104a9565b9050919050565b6104e4816104c9565b81146104ef57600080fd5b50565b600081359050610501816104db565b92915050565b60006020828403121561051d5761051c61049f565b5b600061052b848285016104f2565b91505092915050565b6000819050919050565b61054781610534565b82525050565b6000602082019050610562600083018461053e565b92915050565b60008115159050919050565b61057d81610568565b82525050565b60006020820190506105986000830184610574565b92915050565b6105a7816104c9565b82525050565b60006020820190506105c2600083018461059e565b92915050565b6105d181610534565b81146105dc57600080fd5b50565b6000813590506105ee816105c8565b92915050565b600080fd5b600080fd5b600080fd5b60008083601f840112610619576106186105f4565b5b8235905067ffffffffffffffff811115610636576106356105f9565b5b602083019150836001820283011115610652576106516105fe565b5b9250929050565b600080600080606085870312156106735761067261049f565b5b6000610681878288016104f2565b9450506020610692878288016105df565b935050604085013567ffffffffffffffff8111156106b3576106b26104a4565b5b6106bf87828801610603565b925092505092959194509250565b60006040820190506106e26000830185610574565b6106ef602083018461053e565b9392505050565b600082825260208201905092915050565b7f4e6f7420617574686f72697a6564000000000000000000000000000000000000600082015250565b600061073d600e836106f6565b915061074882610707565b602082019050919050565b6000602082019050818103600083015261076c81610730565b9050919050565b7f4e487b7100000000000000000000000000000000000000000000000000000000600052601160045260246000fd5b60006107ad82610534565b91506107b883610534565b92508282026107c681610534565b915082820484148315176107dd576107dc610773565b5b5092915050565b60006107ef82610534565b91506107fa83610534565b925082820190508082111561081257610811610773565b5b92915050565b82818337600083830152505050565b6000601f19601f8301169050919050565b600061084483856106f6565b9350610851838584610818565b61085a83610827565b840190509392505050565b60006020820190508181036000830152610880818486610838565b9050939250505056fea26469706673582212203ecc1ae83a8c27fd090a18a9e653e53be49a6890e7068b49a8aee433e639509a64736f6c63430008140033",
  "linkReferences": {},
  "deployedLinkReferences": {}
}